:100000000C948F000C94B7000C94B7000C94B700BC
:100010000C94B7000C94B7000C94B7000C94B70084
:100020000C94B7000C94B7000C94B7000C94B70074
:100030000C94B7000C94B7000C94B7000C94B70064
:100040000C9474040C94B7000C9442040C941C049B
:100050000C94B7000C94B7000C94B7000C94B70044
:100060000C94B7000C94B70008000000BE9224491D
:10007000123EABAAAA2ABECDCCCC4C3E00000080DA
:10008000BEABAAAAAA3E00000000BF000000803F4D
:100090000000000000084178D3BB4387D1133D190D
:1000A0000E3CC3BD4282AD2B3E68EC8276BED98F3A
:1000B000E1A93E4C80EFFFBE01C4FF7F3F0000007E
:1000C00000000000000023002600290000000000BE
:1000D000240027002A0000000000250028002B0033
:1000E00004040404040404040202020202020303DE
:1000F00003030303010204081020408001020408E6
:100100001020010204081020000000080002010075
:100110000003040700000000000000000305112494
:100120001FBECFEFD8E0DEBFCDBF11E0A0E0B1E051
:10013000E0EDF3E102C005900D92A435B107D9F7C7
:1001400022E0A4E5B1E001C01D92A030B207E1F7C2
:1001500010E0CFE8D0E004C02197FE010E94E00942
:10016000CE38D107C9F70E9465050C94E6090C94B6
:100170000000AF92BF92CF92DF92EF92FF920F9367
:100180001F93CF93DF936C017B018B01040F151F2D
:10019000EB015E01AE18BF08C017D10759F0699195
:1001A000D601ED91FC910190F081E02DC6010995F9
:1001B000892B79F7C501DF91CF911F910F91FF90A6
:1001C000EF90DF90CF90BF90AF900895FC01538DDA
:1001D000448D252F30E0842F90E0821B930B541721
:1001E00010F0CF96089501970895FC01918D828DAE
:1001F000981761F0A28DAE0FBF2FB11D5D968C9147
:10020000928D9F5F9F73928F90E008958FEF9FEF85
:100210000895FC01918D828D981731F0828DE80F41
:10022000F11D858D90E008958FEF9FEF0895FC01FB
:10023000918D228D892F90E0805C9F4F821B9109C8
:100240008F73992708958DE591E00E94170121E0B1
:10025000892B09F420E0822F089580E090E0892B1B
:1002600029F00E94230181110C9400000895FC01E3
:10027000A48DA80FB92FB11DA35ABF4F2C91848D07
:1002800090E001968F739927848FA689B7892C9364
:10029000A089B1898C91837080648C93938D848DB7
:1002A000981306C00288F389E02D80818F7D8083BA
:1002B0000895EF92FF920F931F93CF93DF93EC017A
:1002C00081E0888F9B8D8C8D98131AC0E889F989FD
:1002D000808185FF15C09FB7F894EE89FF89608300
:1002E000E889F98980818370806480839FBF81E081
:1002F00090E0DF91CF911F910F91FF90EF900895C3
:10030000F62E0B8D10E00F5F1F4F0F731127E02E9D
:100310008C8D8E110CC00FB607FCFACFE889F989D5
:10032000808185FFF5CFCE010E943701F1CFEB8DA3
:10033000EC0FFD2FF11DE35AFF4FF0829FB7F894A9
:100340000B8FEA89FB8980818062CFCFCF93DF93C7
:10035000EC01888D8823B9F0AA89BB89E889F989DD
:100360008C9185FD03C0808186FD0DC00FB607FC12
:10037000F7CF8C9185FFF2CF808185FFEDCFCE0145
:100380000E943701E9CFDF91CF91089590E0FC0101
:10039000E85FFE4F2491FC01EC50FF4F3491FC01CB
:1003A000E052FF4FE491EE23C9F0222339F02330CD
:1003B00001F1A8F4213019F1223029F1F0E0EE0F1B
:1003C000FF1FEA52FF4FA591B4918FB7F894EC91BB
:1003D000611126C030953E233C938FBF089527308E
:1003E000A9F02830C9F0243049F7809180008F7D32
:1003F00003C0809180008F7780938000DFCF84B529
:100400008F7784BDDBCF84B58F7DFBCF8091B0002B
:100410008F778093B000D2CF8091B0008F7DF9CFDD
:100420003E2BDACFCF93DF9360E08CE00E94C601D1
:1004300060E088E00E94C601C7E0D0E060E084E0B0
:100440000E94C6018091FA0190E00C2E02C09595A1
:1004500087950A94E2F761E080FF60E088E00E94FF
:10046000C60161E084E00E94C601219738F761E08F
:100470008CE0DF91CF910C94C601CF93DF9390E095
:10048000FC01EC50FF4F249180529F4FFC0184915E
:100490008823D1F090E0880F991FFC01E453FF4FAF
:1004A000A591B491FC01EA52FF4FC591D49161111D
:1004B0000EC09FB7F8948C91E22FE0958E238C9319
:1004C0002881E223E8839FBFDF91CF9108958FB702
:1004D000F894EC91E22BEC938FBFF6CF61E08CE0C7
:1004E0000E943D0261E087E00E943D0261E088E0F9
:1004F0000E943D0261E084E00E943D021092FA01F8
:100500000E94120260E087E00C94C601FC01808129
:10051000823061F018F4813031F00895833049F071
:10052000843049F008956093B30008956093B40057
:10053000089567BD089568BD0895FC0180818230EB
:1005400069F028F423E092E0813051F0089583307F
:1005500011F126E090E0843019F0089524E091E054
:100560006230E1F0643079F1613009F03FC041E080
:1005700050E0BA0101C0660F9A95EAF78091FA013E
:10058000862B01C0440F2A95EAF7409548234093F3
:10059000FA010C94120227E095E0E2CF41E050E02E
:1005A000BA0102C0660F771F9A95E2F7CB018095DA
:1005B0009091FA01892301C0440F2A95EAF7842B10
:1005C0008093FA01E6CF41E050E0FA0102C0EE0F5D
:1005D000FF1F9A95E2F7CF0101C0440F2A95EAF771
:1005E000842B80959091FA018923EACF089562E0E7
:1005F0008EEF91E00E949D026FEF8EEF91E00E94DE
:1006000086026CEF8CEF91E00C94860264E08EEF32
:1006100091E00E949D0264E08CEF91E00C949D02B9
:10062000FC0101900020E9F73197AF01481B590BFD
:10063000BC018DE591E00C94B9008F929F92AF922E
:10064000BF920F931F93CF93DF93CDB7DEB7A197E0
:100650000FB6F894DEBF0FBECDBF19A2423008F42A
:100660004AE08E010F5D1F4F842E912CB12CA12CDE
:10067000A50194010E94BE09E62FB901CA01EA3022
:10068000F4F4E05DD801EE938D01232B242B252B70
:1006900079F790E080E0109719F0CD010E941003E7
:1006A000A1960FB6F894DEBF0FBECDBFDF91CF91FC
:1006B0001F910F91BF90AF909F908F900895E95C2C
:1006C000E1CF0F931F9360E083E00E94C60183E0B7
:1006D00090E00197F1F761E083E00E94C60183E2B8
:1006E00090E00197F1F760E083E00E94C601E6EF39
:1006F000F0E06491E2EEF0E0E491F0E0EE0FFF1F35
:10070000EE53FF4F8591949100E412E42FE030E026
:10071000462F0E94BE04611571058105910529F0DF
:100720006F5F7F4F8F4F9F4F9F700E94120826E987
:1007300033E44BE05DE30E94170920E030E040E045
:100740005FE30E9417090E94DA07CB011F910F9106
:1007500008958F929F92AF92BF92CF92DF92EF92C5
:10076000FF9280E480937C0080917A008064809383
:100770007A0080917A0086FDFCCF809178006091AC
:100780007900762F682F072E000C880B990B0E949A
:1007900012089B01AC0160E070EC8FE794E40E94CA
:1007A000680720E030E040E85FE30E94F60620E0C2
:1007B00030E44CE156E40E9417090E94CF086B0117
:1007C0007C0129E537E44CEB53E30E941709A701AC
:1007D00096010E941709A70196010E9417094B0173
:1007E0005C0123E73FE745E759E3C701B6010E94F3
:1007F00017092BEE3FEF43E95AE30E94F7069B01EE
:10080000AC01C501B4010E94F7069B01AC0160E098
:1008100070E080E89FE30E94680723E333E948E83B
:1008200053E40E94F606FF90EF90DF90CF90BF90C8
:10083000AF909F908F9008951F920F920FB60F92D6
:1008400011242F933F934F935F936F937F938F93D5
:100850009F93AF93BF93EF93FF938DE591E00E9439
:100860003701FF91EF91BF91AF919F918F917F9150
:100870006F915F914F913F912F910F900FBE0F900D
:100880001F9018951F920F920FB60F9211242F935D
:100890008F939F93EF93FF93E0916D01F0916E0121
:1008A0008081E0917301F091740182FD1BC0908101
:1008B000809176018F5F8F7320917701821741F0CD
:1008C000E0917601F0E0E35AFE4F958F8093760138
:1008D000FF91EF919F918F912F910F900FBE0F90ED
:1008E0001F9018958081F4CF1F920F920FB60F9230
:1008F00011242F933F938F939F93AF93BF93809136
:10090000590190915A01A0915B01B0915C01309125
:10091000580123E0230F2D3758F50196A11DB11D75
:10092000209358018093590190935A01A0935B0141
:10093000B0935C018091540190915501A0915601B2
:10094000B09157010196A11DB11D80935401909360
:100950005501A0935601B0935701BF91AF919F915C
:100960008F913F912F910F900FBE0F901F90189570
:1009700026E8230F0296A11DB11DD2CFCF92DF92A0
:10098000EF92FF920F931F93E82FF92F05C00150AC
:1009900011092109310961F1908196239417B9F366
:1009A00005C0015011092109310911F190819623E7
:1009B0009413F7CFC12CD12CE12CF12C0AC08FEF6E
:1009C000C81AD80AE80AF80A0C151D052E053F05B5
:1009D00079F080818623841791F36C2D7D2D8E2DE7
:1009E0009F2D1F910F91FF90EF90DF90CF90089572
:1009F00060E070E080E090E01F910F91FF90EF9039
:100A0000DF90CF900895CF93EDE5F1E0138212824D
:100A100088EE93E0A0E0B0E084839583A683B7835B
:100A200084E091E09183808385EC90E095878487D2
:100A300084EC90E09787868780EC90E0918B808BA8
:100A400081EC90E0938B828B82EC90E0958B848B91
:100A500086EC90E0978B868B118E128E138E148EFF
:100A60001092FB01EEEFF1E081E08083C2E0C183F0
:100A70000E946E028091FA01837F8093FA010E94A6
:100A80001202E0EBF0E0808183688083C093B100C4
:100A90001092B30061E08BE00E943D02ECEFF1E0C8
:100AA00083E08083C1830E946E028091FA018F757A
:100AB0008093FA010E94120284B5836884BD17BC3A
:100AC00061E086E0CF910C943D02789484B5826019
:100AD00084BD84B5816084BD85B5826085BD85B5E2
:100AE000816085BD80916E00816080936E00109260
:100AF00081008091810082608093810080918100DB
:100B0000816080938100809180008160809380006B
:100B10008091B10084608093B1008091B0008160C9
:100B20008093B00080917A00846080937A008091F5
:100B30007A00826080937A0080917A00816080934D
:100B40007A0080917A00806880937A001092C100C8
:100B50006FEF8EEF91E00E94860264E08EEF91E0ED
:100B60000E949D026FEF8CEF91E00E94860264E08C
:100B70008CEF91E00E949D0261E083E00E943D02C3
:100B800060E082E00E943D02E0916D01F0916E0113
:100B900082E08083E0916901F0916A011082E09126
:100BA0006B01F0916C018FEC808310927501E091E4
:100BB0007101F091720186E08083E0916F01F09104
:100BC0007001808180618083E0916F01F0917001FC
:100BD000808188608083E0916F01F0917001808155
:100BE00080688083E0916F01F091700180818F7D3A
:100BF000808382E191E00E94100381E391E00E94F2
:100C0000100384E391E00E94100381E391E00E94CD
:100C10001003C0E0D0E00E94A9036B017C01AC018D
:100C20009B010E9484098823A9F188E491E00E9435
:100C3000100381E391E00E9410030E94A90320E0C9
:100C400030E040E252E40E94630718160CF4BEC084
:100C50000E9461030B970CF4AFC061E08EEF91E04E
:100C60000E949D0261E08CEF91E00E949D026FEF77
:100C70008EEF91E00E9486026DEF8CEF91E00E9472
:100C80008602209741F20E942301882321F20E94CC
:100C90000000C1CF46015701E894B7F82FEF3FEFAE
:100CA0004FE75FE7C501B4010E94840981110DC0BF
:100CB0002FEF3FEF4FE75FE7C501B4010E946307E5
:100CC00018161CF48CE491E0B2CF2FEF3FEF4FE702
:100CD0005FE4C701B6010E94C20818161CF480E543
:100CE00091E0A5CF2FEF3FEF4FE75FECC701B601D3
:100CF0000E94630787FDF3CF20E030E0A901C70120
:100D0000B6010E94630787FF09C06DE28DE591E09F
:100D10000E945901F7FAF094F7F8F0942AE037EDC1
:100D200043EA5BE3C701B6010E94F7064B015C0191
:100D30000E94E1076B017C010E9410089B01AC013D
:100D4000C501B4010E94F6064B015C014AE0C701EF
:100D5000B6010E941D036EE28DE591E00E945901EB
:100D600020E030E040E251E4C501B4010E941709DF
:100D70004B015C010E94E1076B01F12CE12C4AE080
:100D8000C701B6010E941D03C701B6010E941008E9
:100D90009B01AC01C501B4010E94F60620E030E0E1
:100DA00040E251E40E9417090E94E10790E080E0D0
:100DB0004AE00E941D033DCF0E9406030E9461038A
:100DC0000A970CF045CF0E94F702F8CF0E94060365
:100DD0000E94A90320E030E040E252E40E94C208F1
:100DE00018160CF04ECF0E94F702F2CF5058BB27D6
:100DF000AA270E940E070C9488080E947A0838F0EF
:100E00000E94810820F039F49F3F19F426F40C94D5
:100E100077080EF4E095E7FB0C947108E92F0E9427
:100E2000990858F3BA17620773078407950720F0EB
:100E300079F4A6F50C94BB080EF4E0950B2EBA2FAE
:100E4000A02D0B01B90190010C01CA01A0011124D0
:100E5000FF27591B99F0593F50F4503E68F11A167C
:100E6000F040A22F232F342F4427585FF3CF46950D
:100E700037952795A795F0405395C9F77EF41F162F
:100E8000BA0B620B730B840BBAF09150A1F0FF0FF9
:100E9000BB1F661F771F881FC2F70EC0BA0F621FE5
:100EA000731F841F48F4879577956795B795F795D5
:100EB0009E3F08F0B0CF9395880F08F09927EE0F6A
:100EC0009795879508950E944D0808F481E008954C
:100ED0000E947C070C9488080E94810858F00E94A8
:100EE0007A0840F029F45F3F29F00C947108511101
:100EF0000C94BC080C9477080E94990868F3992315
:100F0000B1F3552391F3951B550BBB27AA27621705
:100F10007307840738F09F5F5F4F220F331F441F12
:100F2000AA1FA9F335D00E2E3AF0E0E832D0915046
:100F30005040E695001CCAF72BD0FE2F29D0660F33
:100F4000771F881FBB1F261737074807AB07B0E876
:100F500009F0BB0B802DBF01FF2793585F4F3AF07C
:100F60009E3F510578F00C9471080C94BC085F3FCB
:100F7000E4F3983ED4F3869577956795B795F79502
:100F80009F5FC9F7880F911D9695879597F90895EA
:100F9000E1E0660F771F881FBB1F62177307840786
:100FA000BA0720F0621B730B840BBA0BEE1F88F795
:100FB000E09508950E94E1076894B1110C94BC0873
:100FC00008950E94A10888F09F5798F0B92F99279B
:100FD000B751B0F0E1F0660F771F881F991F1AF024
:100FE000BA95C9F714C0B13091F00E94BB08B1E0C6
:100FF00008950C94BB08672F782F8827B85F39F0C5
:10100000B93FCCF3869577956795B395D9F73EF4BC
:1010100090958095709561957F4F8F4F9F4F089564
:10102000E89409C097FB3EF4909580957095619582
:101030007F4F8F4F9F4F9923A9F0F92F96E9BB2738
:101040009395F695879577956795B795F111F8CFB4
:10105000FAF4BB0F11F460FF1BC06F5F7F4F8F4F1F
:101060009F4F16C0882311F096E911C0772321F015
:101070009EE8872F762F05C0662371F096E8862FAD
:1010800070E060E02AF09A95660F771F881FDAF704
:10109000880F9695879597F90895990F0008550F31
:1010A000AA0BE0E8FEEF16161706E807F907C0F0EE
:1010B00012161306E407F50798F0621B730B840BF6
:1010C000950B39F40A2661F0232B242B252B21F4D0
:1010D00008950A2609F4A140A6958FEF811D811D70
:1010E000089597F99F6780E870E060E008959FEFAA
:1010F00080EC089500240A941616170618060906AF
:10110000089500240A94121613061406050608957D
:10111000092E0394000C11F4882352F0BB0F40F405
:10112000BF2B11F460FF04C06F5F7F4F8F4F9F4F45
:10113000089557FD9058440F551F59F05F3F71F0C7
:101140004795880F97FB991F61F09F3F79F087952E
:101150000895121613061406551FF2CF4695F1DFB7
:1011600008C0161617061806991FF1CF8695710547
:10117000610508940895E894BB2766277727CB017B
:1011800097F908950E944D0808F48FEF089516F01E
:101190000C9489090C94770868940C9471080E9447
:1011A000A108A8F39923C1F3AEF3DF93CF931F9364
:1011B0000F93FF92C92FDD2788232AF02197660F0E
:1011C000771F881FDAF720E030E040E85FEB9FE30D
:1011D000883920F0803E38F021968F770E94F706FC
:1011E000E8E6F0E004C00E94F706E5E9F0E00E94BE
:1011F00097098B01BE01EC01FB2E6F5771097595A4
:10120000771F880B990B0E94120828E132E741E30F
:101210005FE30E942A09AF2D9801AE01FF900F9164
:101220001F91CF91DF910E940E070C9488080E94B5
:101230002A090C9488080E947A0838F00E948108D4
:1012400020F0952311F00C9471080C947708112468
:101250000C94BC080E94990870F3959FC1F3950FF8
:1012600050E0551F629FF001729FBB27F00DB11D2A
:10127000639FAA27F00DB11DAA1F649F6627B00DBA
:10128000A11D661F829F2227B00DA11D621F739FA3
:10129000B00DA11D621F839FA00D611D221F749FB1
:1012A0003327A00D611D231F849F600D211D822FF8
:1012B000762F6A2F11249F5750409AF0F1F088231F
:1012C0004AF0EE0FFF1FBB1F661F771F881F91504C
:1012D0005040A9F79E3F510580F00C9471080C9482
:1012E000BC085F3FE4F3983ED4F386957795679505
:1012F000B795F795E7959F5FC1F7FE2B880F911D76
:101300009695879597F908950E944D08880B990B3B
:1013100008959F3F31F0915020F487957795679518
:10132000B795880F911D9695879597F90895DF9346
:10133000CF931F930F93FF92EF92DF927B018C016B
:10134000689406C0DA2EEF010E942A09FE01E89493
:10135000A5912591359145915591A6F3EF010E94F4
:101360000E07FE019701A801DA9469F7DF90EF906C
:10137000FF900F911F91CF91DF910895A1E21A2E56
:10138000AA1BBB1BFD010DC0AA1FBB1FEE1FFF1F29
:10139000A217B307E407F50720F0A21BB30BE40B79
:1013A000F50B661F771F881F991F1A9469F76095C0
:1013B0007095809590959B01AC01BD01CF0108957A
:1013C000EE0FFF1F0590F491E02D0994F894FFCFE4
:1013D000000000005901B900E600A6011701F50060
:1013E0000901556C747261736F6E69632053656E89
:1013F000736F722048432D535230342054657374F8
:10140000000D0A00776974682041726475696E6F17
:1014100020554E4F205233006E616E00696E66009B
:041420006F7666007D
:00000001FF
